:100000000C9434000C9451000C9451000C94510049
:100010000C9451000C9451000C9451000C9451001C
:100020000C9451000C9451000C9451000C9451000C
:100030000C9451000C9451000C9451000C945100FC
:100040000C9451000C9451000C9493010C945100A9
:100050000C9451000C9451000C9451000C945100DC
:100060000C9451000C94510011241FBECFEFD4E02A
:10007000DEBFCDBF12E0A0E0B1E0E8E9F4E002C0ED
:1000800005900D92A230B107D9F722E0A2E0B2E0CC
:1000900001C01D92A334B207E1F70E9430020C9414
:1000A0004A020C940000E0E8F0E0808182608083E6
:1000B000A1E8B0E08C9188618C938C9181608C93E5
:1000C0008081806A808383E080938600089582E047
:1000D00090E090938900809388005B9A0895109235
:1000E0008900109288005B98089582E090E09093D8
:1000F0008B0080938A00089510928B0010928A00E2
:100100000895A2ECB0E08C918F738C93E1ECF0E059
:100110008081886180838C9186608C938FE090E0F1
:100120009093C5008093C400808180688083089587
:1001300031E0309337022AE020933C0287E690E0DA
:1001400090933902809338028FE690E090933B02BF
:1001500080933A0230933D022093420285E790E07B
:1001600090933F0280933E028CE790E0909341028F
:10017000809340020895A62FB0E0AA0FBB1FAF5F87
:10018000BE4F2D913C91909102029130F1F490E09C
:10019000FC01EE0FFF1F8E0F9F1FFC01EE0FFF1FD4
:1001A000EE0FFF1FEE0FFF1FE95FFD4F81E0808321
:1001B000818313821282148265834683108617829C
:1001C0003287218710920202089590E0FC01EE0F21
:1001D000FF1F8E0F9F1FFC01EE0FFF1FEE0FFF1F73
:1001E000EE0FFF1FED5EFD4F81E080838183138260
:1001F0001282148265834683108617823287218794
:100200008093020208952091020290E0FC01EE0F1B
:10021000FF1FE80FF91FEE0FFF1FEE0FFF1FEE0F7E
:10022000FF1FE95FFD4F3581361312C0FC01EE0F51
:10023000FF1FE80FF91FEE0FFF1FEE0FFF1FEE0F5E
:10024000FF1FE95FFD4F118210822281248321E08C
:10025000FC01EE0FFF1FE80FF91FEE0FFF1FEE0F5F
:10026000FF1FEE0FFF1FE95FFD4F3189361313C0EB
:10027000FC01EE0FFF1F8E0F9F1FFC01EE0FFF1FF3
:10028000EE0FFF1FEE0FFF1FE95FFD4F158614866F
:100290008685808B20E0209302020895982F929506
:1002A0009F70993049F491E0909306029093000179
:1002B0008F70809305020895983049F491E09093EF
:1002C0000602109200018F70809305020895882322
:1002D0004CF190910402911106C08093030281E0D9
:1002E00080930402089510920402909100019923D2
:1002F00091F0811108C04FE76091030280910502DF
:100300000E9403010895482F609103028091050225
:100310000E94BB000895482F60910302809105025E
:100320000E94030108951F920F920FB60F9211249D
:100330002F933F934F935F936F937F938F939F93ED
:10034000AF93BF93EF93FF938091C6000E944E013D
:10035000FF91EF91BF91AF919F918F917F916F919D
:100360005F914F913F912F910F900FBE0F901F9073
:10037000189590E070E0FB01EE0FFF1F6E0F7F1FDE
:10038000FB01EE0FFF1FEE0FFF1F9C01220F331F1B
:10039000280F391F220F331F220F331F220F331F45
:1003A000E20FF31FE95FFD4F2081222301F1278136
:1003B00030852F5F3F4F30872783DC01AA0FBB1F9B
:1003C0008A0F9B1FDC01AA0FBB1FA95CBD4F1596AE
:1003D0004C9150E081E02417350708F080E041851A
:1003E00052854217530720F410861782089580E043
:1003F0000895CF93809137028823B1F060E080E0C8
:100400000E94B901C82F61E080E00E94B901C813C1
:1004100006C0E0913A02F0913B02099505C0E091D7
:100420003802F0913902099580913D028823B1F09C
:1004300060E081E00E94B901C82F61E081E00E9484
:10044000B9018C1731F0E0913E02F0913F0209951D
:1004500005C0E0914002F09141020995CF910895C5
:100460008AB188648AB984B1866084B90E94980090
:100470000E9481000E94530082E084BD81E085BD1E
:1004800080E587BD7894C2E0A99BFECFC5BB0E94E2
:08049000F901FACFF894FFCF47
:1004980001C72F192D912AEC25EC25CB23C921E37F
:1004A8001F191E691CD11A4F19E4178C1648151705
:1004B80014F612E611E410F20F0D0F340E680DA8B1
:1004C8000CF20B460BA40A0B0A7B09F3087208F915
:1004D8000786071A07B4065406F905A30552050648
:1004E80005BD0479043904FC03C3038D035A032AA8
:1004F80003FC02D202A90283025F023D021D02FE32
:1005080001E201C701AD0195017E01690155014173
:10051800012F011E010E01FF00F100E300D700CA00
:1005280000BF00B400AA00A10098008F00870080D7
:1005380000780072006B00650060005A005500509A
:10054800004C004800440040003C003900360033AD
:100558000030002D002B0028002600240022002057
:10056800001E001C001B00190018001700150014BD
:100578000013001200110011000F000E000D000DF5
:10058800000C000B000B000A000900090008000815
:02059800000061
:00000001FF
